:020000040000FA
:040000008031CB2858
:100008007E1480310B1D09280A282F280130F80793
:100018000030F93D7B08F600F7017608F000770814
:10002800F1006430F2000030F3008E312E2680316A
:1000380071087902031D222870087802031C2528FC
:1000480026282B282000E501F801F9018B120B1155
:100058006430200095002000911E33283428C928D8
:100068008E3120268031F6007608FA0024307A0690
:10007800031D3F2840284A287C0A031D4428452898
:100088004A28FE30F6007608FC00C928FE307C06B7
:10009800031D4F285028962857307A06031D5528E7
:1000A80056285928FC01FC0AC9284C307A06031D39
:1000B8005E285F2864280230F6007608FC00C9280C
:1000C80048307A06031D69286A286F280330F6002D
:1000D8007608FC00C92843307A06031D7428752861
:1000E8007E282000E4010330F6007608E500FC01D4
:1000F800FC03C92854307A06031D832884288C28D9
:100108000430F6007608FC002000E401E40AC9285F
:1001180053307A06031D9128922895282000E5017E
:100128007B28C9287C03031D9A289B28A1287A08C4
:10013800F60076082000E8007B2802307C06031DC4
:10014800A628A728AD287A08F60076082000E70038
:100158007B2803307C06031DB228B328B9287A0807
:10016800F60076082000E6007B2804307C06031D94
:10017800BE28BF2895287A08F6007608FB000330C9
:10018800F60076082000E5007B287E100900803103
:10019800CD288731FC278031FC00F801F901FA01EC
:1001A800FB01E001E101E201E301E401E501E6010F
:1001B800E701E8017E1020008531712D200031080B
:1001C8008039B6003608BB003135B6003608C100A4
:1001D800B01FEF28F028F128411441080319F52829
:1001E800F6280529410A031DFA28FB2803290030AF
:1001F800B1000030B0000030AF000030AE00B017E2
:100208000D290030B1000030B0000030AF000030E0
:10021800AE0035088039B6003608BB063535B6005D
:100228003608C000B41F19291A291B294014400890
:1002380003191F2920292F29400A031D24292529AC
:100248002D290030B5000030B4000030B300003074
:10025800B200B41737290030B5000030B4000030C0
:10026800B3000030B200400803193B293C2941295A
:100278004108031D402941294A290030B1000030B6
:10028800B0000030AF000030AE00382B2E08B600AA
:100298003608A00034088E317026803120002108ED
:1002A800C7002008C6004608B600B701B801B90162
:1002B8003908BF003808BE003708BD003608BC0042
:1002C8004708B600B701B801B9013908C5003808B0
:1002D800C4003708C3003608C2002F08B600360825
:1002E800A00033088E317026803120002108C70015
:1002F8002008C6004608B600B701B801B90136089B
:10030800BC073708BD3D3808BE3D3908BF3D470822
:10031800B600B701B801B9013608C2073708C33DAE
:100328003808C43D3908C53D3008B6003608A00075
:1003380032088E317026803120002108C70020083D
:10034800C6004608B600B701B801B9013608BC07AF
:100358003708BD3D3808BE3D3908BF3D4708B600DF
:10036800B701B801B9013608C2073708C33D3808D4
:10037800C43D3908C53D0830BC35BD0DBE0DBF0DA7
:10038800890BC0292F08B6003608A00032088E3124
:100398007026803120002108C7002008C6004608C2
:1003A800BC074708BD3D0030BE3DBF3D2E08B60026
:1003B8003608A00033088E317026803120002108CD
:1003C800C7002008C6004608BC074708BD3D0030E6
:1003D800BE3DBF3D0830BC35BD0DBE0DBF0D890B00
:1003E800EF292E08B6003608A00032088E31702694
:1003F800803120002108C7002008C6004608BC0735
:100408004708BD3D0030BE3DBF3D2F08B600360849
:10041800A00034088E317026803120002108C700E2
:100428002008C6004608C2074708C33D0030C43D3F
:10043800C53D3008B6003608A00033088E31702656
:10044800803120002108C7002008C6004608C207DE
:100458004708C33D0030C43DC53D3008B6003608E6
:10046800A00034088E317026803120002108C70092
:100478002008C6004608B6004708B700B801B90109
:100488000830B635B70DB80DB90D890B452A3608B1
:10049800C2073708C33D3808C43D3908C53D3C0884
:1004A800B6003D08B7003E08B8003F08B90018304C
:1004B800B936B80CB70CB60C890B5C2A3608C207DB
:1004C8003708C33D3808C43D3908C53D0830BC3538
:1004D800BD0DBE0DBF0D890B6B2A41084007B60044
:1004E800B701B70D3608823EC600FF30373DC7005A
:1004F800942A0130C235C30DC40DC50D890B7E2A5F
:10050800BF1F872A882A892A42140130BC35BD0DAD
:10051800BE0DBF0D890B8A2AFF30C607FF30C73DC5
:10052800C41F972A982A7D2AC001BF1F9C2A9D2A8A
:10053800B92AFF303C05B600FF303D05B700FF3053
:100548003E05B8007F303F05B90039083804370444
:1005580036040319B02AB12AB42AC001C00AB92A3C
:10056800421CB72AB82AB92AB12A40080319BD2A59
:10057800BE2AE62A0130C2070030C33D0030C43D20
:100588000030C53D451CC92ACA2AE62A4208B600D9
:100598004308B7004408B8004508B9000130BA005C
:1005A800B937B80CB70CB60CBA0BD42A3908C50041
:1005B8003808C4003708C3003608C2000130C6072F
:1005C8000030C73D4708803AB60080303602031D28
:1005D800EF2AFF304602031CF22AF32AFD2A7F3055
:1005E8002000C5008030C4000030C3000030C200C5
:1005F8002C2B20004708803AB60080303602031DB5
:10060800072B0130460203180A2B0B2B162B003040
:100618002000C5000030C4000030C3000030C20014
:10062800BB012C2B20004608B6003608C100FF305D
:10063800C205FF30C3057F30C4050030C505411C25
:10064800262B272B282BC4174136B6003608C500A1
:100658003B08B6003608C5044508B1004408B00098
:100668004308AF004208AE00080020004B0880395C
:10067800D0005008D8004B35D0005008DA00CA1F07
:10068800462B472B482B5A145A0803194C2B4D2B31
:100698005D2B5A0A031D512B522B5A2B0030CB00CD
:1006A8000030CA000030C9000030C800CA17CB01AA
:1006B800652B0030CB000030CA000030C900003084
:1006C800C8004F088039D0005008D900590858068A
:1006D80003196F2B702B712B58174F35D00050080A
:1006E800D900CE1F782B792B7A2B59145908031966
:1006F8007E2B7F2B8F2B590A031D832B842B8C2B4E
:100708000030CF000030CE000030CD000030CC00EB
:10071800CE17CF01972B0030CF000030CE0000302D
:10072800CD000030CC005A08590203189C2B9D2B91
:10073800E12B581FA02BA12BA52B8030D0005008EF
:10074800D8065A08D0005008DB005908D0005008D5
:10075800DA005B08D0005008D9004808D0005008DB
:10076800DB004C08D0005008C8005B08D0005008D7
:10077800CC004908D0005008DB004D08D0005008D4
:10078800C9005B08D0005008CD004A08D0005008C6
:10079800DB004E08D0005008CA005B08D0005008A3
:1007A800CE004B08D0005008DB004F08D00050089E
:1007B800CB005B08D0005008CF00DB015908D000FF
:1007C800D1015108D3005A085002D200031CD303A8
:1007D8005308803AD40080305402031DF52B1A3098
:1007E8005202031CF82BF92B312C20004B084A0429
:1007F80049044804031D012C032C0130042C00304B
:10080800D0005008DB000030CB000030CA000030B8
:10081800C9000030C8005908D0005008DA00382C48
:100828005B1C172C182C1E2C5B360138D000500886
:10083800DB00202C0310DB0C481C232C242C252C3B
:10084800DB170130D000CB37CA0CC90CC80CD00B51
:10085800272C0130D0005008DA07200059085A0226
:10086800031C372C382C142C581B3B2C3C2C742C78
:100878005A08031D402C412C4A2C0030CB00003074
:10088800CA000030C9000030C800702D4C08C807E5
:100898004D08C93D4E08CA3D4F08CB3D4B1C552C51
:1008A800562C002D5B1C592C5A2C602C5B360138B9
:1008B800D0005008DB00622C0310DB0C481C652CB0
:1008C800662C672CDB170130D000CB37CA0CC90C5B
:1008D800C80CD00B692C0130D0005008DA07002D65
:1008E8004B08803AD0004F08803A5002031D862CEE
:1008F8004E084A02031D862C4D084902031D862C0A
:100908004C0848020318892C8A2CC22CFF30D000CE
:10091800FF30D100FF30D200FF30D30048084C022E
:10092800D40049084D3BD5004A084E3BD6004B0839
:100938004F3BD7005408D0075508D13D5608D23D43
:100948005708D33D5308CB005208CA005108C900C4
:100958005008C8008030D0005008D806DB09DB0AF0
:100968005B08031DB82CB92CCA2C0130C80700300D
:10097800C93D0030CA3D0030CB3DCA2C4C08C802E6
:100988004D08C93B4E08CA3B4F08CB3B4B084A04AD
:1009980049044804031DD12CD22CFC2C5B08031DF0
:1009A800D62CD72CFC2C0030CB000030CA000030ED
:1009B800C9000030C800702D0130C835C90DCA0DF6
:1009C800CB0D890BE12CDB1FEA2CEB2CEC2C48140B
:1009D8005B1CEF2CF02CF32C0314DB0DF52C03100F
:1009E800DB0D5A080319F92CFA2CFC2C0130DA0219
:1009F800CA1FFF2C002DE02CD901DB1F042D052D6B
:100A0800132D5B087F3903190A2D0B2D0E2DD901E3
:100A1800D90A132D481C112D122D132D0B2D5908F1
:100A28000319172D182D452D0130C8070030C93D71
:100A38000030CA3D0030CB3D4B1C232D242D452DC5
:100A48004808D0004908D1004A08D2004B08D30012
:100A58000130D400D337D20CD10CD00CD40B2E2DAE
:100A68005308CB005208CA005108C9005008C800F2
:100A78005A0A0319402D412D452D0130D000500848
:100A8800DA075A0A0319492D4A2D4F2D5A08031D12
:100A98004E2D4F2D5D2D0030CB000030CA000030A8
:100AA800C9000030C8005A08031D5B2D5C2D5D2D60
:100AB800D8015A1C602D612D632DCA17672D7F3010
:100AC800D0005008CA055A36D0005008CB00D81FAD
:100AD8006E2D6F2D702DCB170800783021009904EA
:100AE8001908FC39023899001A1E7B2D7C2D782DA7
:100AF80023008C018D018E018E311826853100303E
:100B08002000BD000030BC000030BB000030BA003F
:100B18008F31642785318E314D268531210095121C
:100B280015129511151595141514643020009500AB
:100B3800210091168B120B110B178B170D108D10AE
:100B480020000D108D1005302000DD000F30DC0076
:100B5800F130890BAD2DDC0BAD2DDD0BAD2D20005B
:100B68006508031DB82DB92DD22D0030BD00003009
:100B7800BC000030BB000030BA008F3164278531DB
:100B880020000D108D14F801F9018B120B1164303F
:100B980095000230DC005C08E500B32D03306506E3
:100BA800031DD72DD82D1D2EC130CB00CF30CA0044
:100BB8003330C9003330C8004230B1006030B00073
:100BC800CC30AF00CD30AE006808DC00DD01DE01BE
:100BD800DF015F08A3005E08A2005D08A1005C08B1
:100BE800A000013087310527853120002308B50092
:100BF8002208B4002108B3002008B2008031E220A6
:100C0800853120003108CF003008CE002F08CD00F4
:100C18002E08CC0083313923853120004B08E300AE
:100C28004A08E2004908E1004808E000E501E50A51
:100C3800B32D6503031D212E222EB32D0D148D1007
:100C48006408031D282E292E922E8B2E6708031D5B
:100C58002E2E2F2E522E6308A3006208A2006108D0
:100C6800A1006008A0008E31EF26853120002308FE
:100C7800BD002208BC002108BB002008BA008F3143
:100C88006427853120006608DC00DD015C08A000CF
:100C98005D08A1008731E62785318B2E6308A30004
:100CA8006208A2006108A1006008A0008E31EF264A
:100CB800853120002308BD002208BC002108BB00A4
:100CC8002008BA008F316427853120006608DC00CF
:100CD800DD015C08A0005D08A1008731E6278531A9
:100CE80000302000BD000030BC000030BB000030E8
:100CF800BA008F316427853120006708DC00DD01E8
:100D08005C08A0005D08A1008731E6278531200036
:100D180065030319902E912E2A2EB32D6403031D0B
:100D2800962E972E022F8B16FA2E6708031D9D2EDE
:100D38009E2EC12E6308A3006208A2006108A100CC
:100D48006008A0008E31EF26853120002308BD0001
:100D58002208BC002108BB002008BA008F31642794
:100D6800853120006608DC00DD015C08A0005D0814
:100D7800A1008731E6278531FA2E6308A3006208AF
:100D8800A2006108A1006008A0008E31EF2685311D
:100D980020002308BD002208BC002108BB00200851
:100DA800BA008F316427853120006608DC00DD0138
:100DB8005C08A0005D08A1008731E6278531003076
:100DC8002000BD000030BC000030BB000030BA007D
:100DD8008F316427853120006708DC00DD015C085D
:100DE800A0005D08A1008731E62785312000650352
:100DF8000319FF2E002F992EE501B32DB32D803155
:100E0800CB282000A800280803190B2F0C2F202F0F
:100E1800A31F0F2F102F202F2009AA002109AB0094
:100E28002209AC002309AD00AA0A0319AB0A031969
:100E3800AC0A0319AD0A282F2308AD002208AC001C
:100E48002108AB002008AA0023082204210420045A
:100E5800031D2F2F302F392F0030A3000030A200A0
:100E68000030A1000030A000B12F9630A400240863
:100E7800A900492F0130A4002408A9070130AD3684
:100E8800AC0CAB0CAA0C890B432FFE302D05031DAF
:100E98004E2F4F2F3E2F632F0130A4002408A9079F
:100EA8000130AA070030AB3D0030AC3D0030AD3D0D
:100EB8000130AD36AC0CAB0CAA0C890B5D2FFF30A2
:100EC8002D05031D682F692F502F732F0130A9029C
:100ED8000130AA35AB0DAC0DAD0D890B6D2FAC1BD8
:100EE800762F772F7D2F0230290203187C2F7D2F34
:100EF8006A2F2918802F812F892FFF30AA05FF30EC
:100F0800AB057F30AC05FF30AD050310A90C2908EF
:100F1800A400A501A601A7011830A435A50DA60DAA
:100F2800A70D890B912F2408AA042508AB042608CD
:100F3800AC042708AD0428080319A32FA42FA92F50
:100F4800A31FA72FA82FA92FAD172D08A3002C0882
:100F5800A2002B08A1002A08A000080000302000E9
:100F6800AB000030AA000030A9000030A800201C07
:100F7800BE2FBF2FC72F2408A8072508A93D26087C
:100F8800AA3D2708AB3D0130A435A50DA60DA70D38
:100F9800890BC82F0130A336A20CA10CA00C890B19
:100FA800CF2F2308220421042004031DDC2FDD2F6A
:100FB800BB2F2B08A3002A08A2002908A100280893
:100FC800A00008002000A201A301F12F0032003286
:100FD80001302000A2070030A33D21082302031D91
:100FE800F72F20082202031CFA2FFB2FEA2F0800F4
:020FF800FF34C4
:101C3000F33022009805181098161812981708000B
:101C40002000911E242E252E202E23009D1C292E9F
:101C50002A2E2C2E1D121D1619080800F401F5015C
:101C6000701C332E342E382E7208F4077308F53D9D
:101C70000130F235F30D890B392E0130F136F00CBD
:101C8000890B3E2E70087104031D472E482E302EFE
:101C90007508F1007408F00008008B1355303C0003
:101CA0008F00AA308F008F012408E0391738A40074
:101CB0003D002608E0391438A60055303C008F005E
:101CC000AA308F0001308F0023009F159D171D162D
:101CD0001E129E161E15A0309B0001309C000800AD
:101CE0002000A800A401A5012008A200A301220849
:101CF000A6002308A700281C7E2E7F2E832E2608F0
:101D0000A4072708A53D0130A635A70D890B842E11
:101D10000310A80C2808031D8E2E8F2E7B2E25085D
:101D2000A1002408A000080000302000B800003006
:101D3000B7000030B6000030B5002F082E042D0487
:101D40002C040319A42EA52EE62EB901B90AB32E30
:101D50000130AC35AD0DAE0DAF0D890BA92E0130A4
:101D6000B4003408B907AF1FB62EB72EA82E013025
:101D7000B535B60DB70DB80D890BB82E2F08330247
:101D8000031DCC2E2E083202031DCC2E2D0831024D
:101D9000031DCC2E2C083002031CCF2ED02ED92EA2
:101DA0002C08B0022D08B13B2E08B23B2F08B33BE4
:101DB00035140130AF36AE0CAD0CAC0C890BDA2EFD
:101DC0000130B902031DE52EE62EB72E3808AF000C
:101DD0003708AE003608AD003508AC000800031027
:101DE0002000220D230DA4002408AA002A08031DA8
:101DF000FA2EFB2E042F0030A3000030A20000308A
:101E0000A1000030A000632F2008A4002108A50035
:101E10002208A6002308A7001F30A736A60CA50C91
:101E2000A40C890B0D2F2408A8002808A900A217CC
:101E3000FF30A005FF30A105FF30A2050030A3054B
:101E40009630AA02AA1F252F262F3E2F2A08803A55
:101E5000973E03182C2F2D2F2E2FFB2E0130A3364B
:101E6000A20CA10CA00C890B2F2F0130A400240878
:101E7000AA07031D3C2F3D2F2E2F532F20302A025F
:101E8000031C432F442F4E2FFB2E0130A035A10DF4
:101E9000A20DA30D890B462F0130AA022A08031DAB
:101EA000522F532F452F29080319572F582F632FCF
:101EB000A009A109A209A309A00A0319A10A0319EB
:101EC000A20A0319A30A080000302000AF00003066
:101ED000AE000330AD00E830AC003D08A3003C0884
:101EE000A2003B08A1003A08A0000030A700003083
:101EF000A6000030A5003330A4008731B2278F310F
:101F000020002308B3002208B2002108B1002008F5
:101F1000B0008E3194268F31013020002C07BA009A
:101F200000302D3DBB0000302E3DBC0000302F3D69
:101F3000BD003D08031DA72F3C08031DA72F3B082C
:101F4000031DA72F33303A020318A72FA82FAC2F59
:101F50003A0822009900FF2F3D08031DBA2F3C08C4
:101F6000031DBA2F3B08031DBA2F65303A02031830
:101F7000BA2FBB2FC02F3A08013E22009900FF2F35
:101F80003D08031DCE2F3C08031DCE2F3B08031D2B
:101F9000CE2F97303A020318CE2FCF2FD42F3A08E6
:101FA000023E22009900FF2F3D08031DE22F3C084E
:101FB000031DE22F3B08031DE22FC9303A0203182C
:101FC000E22FE32FE82F3A08033E22009900FF2F6B
:101FD0003D08031DF62F3C08031DF62F3B08031D8B
:101FE000F62FFB303A020318F62FF72FFC2F3A0892
:101FF000043E22009900FF2FFF30220099000800C4
:020000040001F9
:04000E00E4C9FBDC6A
:00000001FF
